:0200000080007E
:02000100850078
:020002008A0072
:020003008F006C
:02000400A00159
:02000500A50252
:02000600CF0029
:02000700CC012A
:02000800CF0225
:02000900CF0323
:02000A00CF0421
:02000B00CF051F
:02000C00CF0B18
:02000D00CF0C16
:02000E00CD0D16
:02000F00AD043E
:02001000AE51EF
:02001100CD0719
:02001200CE0816
:02001300BC002F
:02001400BC002E
:02001500BD012B
:02001600BD012A
:02001700AE0237
:02001800264080
:02001900630082
:02001A00CC0018
:02001B00CD0115
:02001C00BE081C
:02001D00BE081B
:02001E00E604F6
:02001F000000DF
:02002000BE0719
:02002100BE0718
:02002200D25BAF
:020023000000DB
:02002400AC012D
:02002500CF0208
:02002600CC0309
:02002700BC0219
:02002800BC0218
:02002900BD0315
:02002A00BD0314
:02002B00AE0124
:02002C0026406C
:02002D0063006E
:02002E00CC0202
:02002F00CD03FF
:02003000BE010F
:02003100BE010E
:02003200E604E2
:020033000000CB
:02003400BE000C
:02003500BE000B
:02003600D234C2
:020037000000C7
:02003800BC000A
:02003900BC0009
:02003A00BD0106
:02003B00BD0105
:02003C00CC04F2
:02003D00CD05EF
:02003E00BC0400
:02003F00BC04FF
:02004000BD05FC
:02004100BD05FB
:02004200BE03FB
:02004300BE03FA
:02004400E604D0
:020045000000B9
:02004600BE02F8
:02004700BE02F7
:02004800D233B1
:020049000000B5
:02004A00BE02F4
:02004B00BE02F3
:02004C004280F0
:02004D00AD0103
:02004E00D61AC0
:02004F000000AF
:02005000BE02EE
:02005100BE02ED
:02005200E807BD
:020053000000AB
:02005400BD05E8
:02005500BD05E7
:02005600BE03E7
:02005700BE03E6
:0200580049005D
:02005900D30FC3
:02005A000000A4
:02005B00BC04E3
:02005C00BC04E2
:02005D00BD05DF
:02005E00BD05DE
:02005F00BE02DF
:02006000BE02DE
:02006100BF03DB
:02006200BF03DA
:02006300374024
:02006400520048
:020065008F000A
:02006600CC04C8
:02006700CD05C5
:02006800703EE8
:02006900000095
:02006A007027FD
:02006B00000093
:02006C00BC00D6
:02006D00BC00D5
:02006E00BD01D2
:02006F00BD01D1
:02007000BE0DC3
:02007100BE0DC2
:020072002980E3
:02007300630028
:02007400CE0DAF
:02007500BE0CBF
:02007600BE0CBE
:02007700BD0BBF
:02007800BD0BBE
:020079002880DD
:02007A006D40D7
:02007B00CE0CA9
:02007C00CD0BAA
:02007D007013FE
:02007E00000080
:02007F00BC0BB8
:02008000BC0BB7
:02008100BD0CB4
:02008200BD0CB3
:02008300BE0DB0
:02008400BE0DAF
:02008500FFFF7B
:02008600FFFF7A
:02008700FFFF79
:02008800FFFF78
:02008900FFFF77
:02008A00FFFF76
:02008B00FFFF75
:02008C00FFFF74
:02008D00FFFF73
:02008E00FFFF72
:02008F00FFFF71
:02009000FFFF70
:02009100FFFF6F
:02009200FFFF6E
:02009300FFFF6D
:02009400FFFF6C
:02009500FFFF6B
:02009600FFFF6A
:02009700FFFF69
:02009800FFFF68
:02009900FFFF67
:02009A00FFFF66
:02009B00FFFF65
:02009C00FFFF64
:02009D00FFFF63
:02009E00FFFF62
:02009F00FFFF61
:0200A000FFFF60
:0200A100FFFF5F
:0200A200FFFF5E
:0200A300FFFF5D
:0200A400FFFF5C
:0200A500FFFF5B
:0200A600FFFF5A
:0200A700FFFF59
:0200A800FFFF58
:0200A900FFFF57
:0200AA00FFFF56
:0200AB00FFFF55
:0200AC00FFFF54
:0200AD00FFFF53
:0200AE00FFFF52
:0200AF00FFFF51
:0200B000FFFF50
:0200B100FFFF4F
:0200B200FFFF4E
:0200B300FFFF4D
:0200B400FFFF4C
:0200B500FFFF4B
:0200B600FFFF4A
:0200B700FFFF49
:0200B800FFFF48
:0200B900FFFF47
:0200BA00FFFF46
:0200BB00FFFF45
:0200BC00FFFF44
:0200BD00FFFF43
:0200BE00FFFF42
:0200BF00FFFF41
:0200C000FFFF40
:0200C100FFFF3F
:0200C200FFFF3E
:0200C300FFFF3D
:0200C400FFFF3C
:0200C500FFFF3B
:0200C600FFFF3A
:0200C700FFFF39
:0200C800FFFF38
:0200C900FFFF37
:0200CA00FFFF36
:0200CB00FFFF35
:0200CC00FFFF34
:0200CD00FFFF33
:0200CE00FFFF32
:0200CF00FFFF31
:0200D000FFFF30
:0200D100FFFF2F
:0200D200FFFF2E
:0200D300FFFF2D
:0200D400FFFF2C
:0200D500FFFF2B
:0200D600FFFF2A
:0200D700FFFF29
:0200D800FFFF28
:0200D900FFFF27
:0200DA00FFFF26
:0200DB00FFFF25
:0200DC00FFFF24
:0200DD00FFFF23
:0200DE00FFFF22
:0200DF00FFFF21
:0200E000FFFF20
:0200E100FFFF1F
:0200E200FFFF1E
:0200E300FFFF1D
:0200E400FFFF1C
:0200E500FFFF1B
:0200E600FFFF1A
:0200E700FFFF19
:0200E800FFFF18
:0200E900FFFF17
:0200EA00FFFF16
:0200EB00FFFF15
:0200EC00FFFF14
:0200ED00FFFF13
:0200EE00FFFF12
:0200EF00FFFF11
:0200F000FFFF10
:0200F100FFFF0F
:0200F200FFFF0E
:0200F300FFFF0D
:0200F400FFFF0C
:0200F500FFFF0B
:0200F600FFFF0A
:0200F700FFFF09
:0200F800FFFF08
:0200F900FFFF07
:0200FA00FFFF06
:0200FB00FFFF05
:0200FC00FFFF04
:0200FD00FFFF03
:0200FE00FFFF02
:0200FF00FFFF01
:00000001FF
